{
  "contractName": "DStorage",
  "abi": [
    {
      "inputs": [],
      "payable": false,
      "stateMutability": "nonpayable",
      "type": "constructor"
    },
    {
      "anonymous": false,
      "inputs": [
        {
          "indexed": false,
          "internalType": "uint256",
          "name": "fileId",
          "type": "uint256"
        },
        {
          "indexed": false,
          "internalType": "string",
          "name": "fileHash",
          "type": "string"
        },
        {
          "indexed": false,
          "internalType": "uint256",
          "name": "fileSize",
          "type": "uint256"
        },
        {
          "indexed": false,
          "internalType": "string",
          "name": "fileType",
          "type": "string"
        },
        {
          "indexed": false,
          "internalType": "string",
          "name": "fileName",
          "type": "string"
        },
        {
          "indexed": false,
          "internalType": "string",
          "name": "fileDescription",
          "type": "string"
        },
        {
          "indexed": false,
          "internalType": "uint256",
          "name": "uploadTime",
          "type": "uint256"
        },
        {
          "indexed": false,
          "internalType": "address payable",
          "name": "uploader",
          "type": "address"
        }
      ],
      "name": "FileUploaded",
      "type": "event"
    },
    {
      "constant": true,
      "inputs": [],
      "name": "fileCount",
      "outputs": [
        {
          "internalType": "uint256",
          "name": "",
          "type": "uint256"
        }
      ],
      "payable": false,
      "stateMutability": "view",
      "type": "function"
    },
    {
      "constant": true,
      "inputs": [
        {
          "internalType": "uint256",
          "name": "",
          "type": "uint256"
        }
      ],
      "name": "files",
      "outputs": [
        {
          "internalType": "uint256",
          "name": "fileId",
          "type": "uint256"
        },
        {
          "internalType": "string",
          "name": "fileHash",
          "type": "string"
        },
        {
          "internalType": "uint256",
          "name": "fileSize",
          "type": "uint256"
        },
        {
          "internalType": "string",
          "name": "fileType",
          "type": "string"
        },
        {
          "internalType": "string",
          "name": "fileName",
          "type": "string"
        },
        {
          "internalType": "string",
          "name": "fileDescription",
          "type": "string"
        },
        {
          "internalType": "uint256",
          "name": "uploadTime",
          "type": "uint256"
        },
        {
          "internalType": "address payable",
          "name": "uploader",
          "type": "address"
        }
      ],
      "payable": false,
      "stateMutability": "view",
      "type": "function"
    },
    {
      "constant": false,
      "inputs": [
        {
          "internalType": "string",
          "name": "_fileHash",
          "type": "string"
        },
        {
          "internalType": "uint256",
          "name": "_fileSize",
          "type": "uint256"
        },
        {
          "internalType": "string",
          "name": "_fileType",
          "type": "string"
        },
        {
          "internalType": "string",
          "name": "_fileName",
          "type": "string"
        },
        {
          "internalType": "string",
          "name": "_fileDescription",
          "type": "string"
        }
      ],
      "name": "uploadFile",
      "outputs": [],
      "payable": false,
      "stateMutability": "nonpayable",
      "type": "function"
    }
  ],
  "bytecode": "0x60806040526000805534801561001457600080fd5b50610b3c806100246000396000f3fe608060405234801561001057600080fd5b50600436106100415760003560e01c80634395351914610046578063e82d9d3314610060578063f4c714b41461029d575b600080fd5b61004e610492565b60408051918252519081900360200190f35b61029b600480360360a081101561007657600080fd5b810190602081018135600160201b81111561009057600080fd5b8201836020820111156100a257600080fd5b803590602001918460018302840111600160201b831117156100c357600080fd5b91908080601f01602080910402602001604051908101604052809392919081815260200183838082843760009201919091525092958435959094909350604081019250602001359050600160201b81111561011d57600080fd5b82018360208201111561012f57600080fd5b803590602001918460018302840111600160201b8311171561015057600080fd5b91908080601f0160208091040260200160405190810160405280939291908181526020018383808284376000920191909152509295949360208101935035915050600160201b8111156101a257600080fd5b8201836020820111156101b457600080fd5b803590602001918460018302840111600160201b831117156101d557600080fd5b91908080601f0160208091040260200160405190810160405280939291908181526020018383808284376000920191909152509295949360208101935035915050600160201b81111561022757600080fd5b82018360208201111561023957600080fd5b803590602001918460018302840111600160201b8311171561025a57600080fd5b91908080601f016020809104026020016040519081016040528093929190818152602001838380828437600092019190915250929550610498945050505050565b005b6102ba600480360360208110156102b357600080fd5b50356107f8565b6040518089815260200180602001888152602001806020018060200180602001878152602001866001600160a01b03166001600160a01b0316815260200185810385528c818151815260200191508051906020019080838360005b8381101561032d578181015183820152602001610315565b50505050905090810190601f16801561035a5780820380516001836020036101000a031916815260200191505b5085810384528a5181528a516020918201918c019080838360005b8381101561038d578181015183820152602001610375565b50505050905090810190601f1680156103ba5780820380516001836020036101000a031916815260200191505b5085810383528951815289516020918201918b019080838360005b838110156103ed5781810151838201526020016103d5565b50505050905090810190601f16801561041a5780820380516001836020036101000a031916815260200191505b5085810382528851815288516020918201918a019080838360005b8381101561044d578181015183820152602001610435565b50505050905090810190601f16801561047a5780820380516001836020036101000a031916815260200191505b509c5050505050505050505050505060405180910390f35b60005481565b60008551116104a657600080fd5b60008351116104b457600080fd5b60008151116104c257600080fd5b60008251116104d057600080fd5b336104da57600080fd5b600084116104e757600080fd5b600080546001908101808355604080516101008101825282815260208082018b81528284018b9052606083018a90526080830189905260a083018890524260c08401523360e0840152938652848152919094208451815591518051929361055693908501929190910190610a6c565b50604082015160028201556060820151805161057c916003840191602090910190610a6c565b5060808201518051610598916004840191602090910190610a6c565b5060a082015180516105b4916005840191602090910190610a6c565b5060c0820151816006015560e08201518160070160006101000a8154816001600160a01b0302191690836001600160a01b031602179055509050507f6e95bbaa37a5fdec42a312e049dea2fe6160ebe659214d3409b4f91f164c2f52600054868686868642336040518089815260200180602001888152602001806020018060200180602001878152602001866001600160a01b03166001600160a01b0316815260200185810385528c818151815260200191508051906020019080838360005b8381101561068d578181015183820152602001610675565b50505050905090810190601f1680156106ba5780820380516001836020036101000a031916815260200191505b5085810384528a5181528a516020918201918c019080838360005b838110156106ed5781810151838201526020016106d5565b50505050905090810190601f16801561071a5780820380516001836020036101000a031916815260200191505b5085810383528951815289516020918201918b019080838360005b8381101561074d578181015183820152602001610735565b50505050905090810190601f16801561077a5780820380516001836020036101000a031916815260200191505b5085810382528851815288516020918201918a019080838360005b838110156107ad578181015183820152602001610795565b50505050905090810190601f1680156107da5780820380516001836020036101000a031916815260200191505b509c5050505050505050505050505060405180910390a15050505050565b600160208181526000928352604092839020805481840180548651600296821615610100026000190190911695909504601f810185900485028601850190965285855290949193929091908301828280156108945780601f1061086957610100808354040283529160200191610894565b820191906000526020600020905b81548152906001019060200180831161087757829003601f168201915b505050506002838101546003850180546040805160206001841615610100026000190190931695909504601f81018390048302860183019091528085529596929592945090919083018282801561092c5780601f106109015761010080835404028352916020019161092c565b820191906000526020600020905b81548152906001019060200180831161090f57829003601f168201915b5050505060048301805460408051602060026001851615610100026000190190941693909304601f81018490048402820184019092528181529495949350908301828280156109bc5780601f10610991576101008083540402835291602001916109bc565b820191906000526020600020905b81548152906001019060200180831161099f57829003601f168201915b5050505060058301805460408051602060026001851615610100026000190190941693909304601f8101849004840282018401909252818152949594935090830182828015610a4c5780601f10610a2157610100808354040283529160200191610a4c565b820191906000526020600020905b815481529060010190602001808311610a2f57829003601f168201915b5050505060068301546007909301549192916001600160a01b0316905088565b828054600181600116156101000203166002900490600052602060002090601f016020900481019282601f10610aad57805160ff1916838001178555610ada565b82800160010185558215610ada579182015b82811115610ada578251825591602001919060010190610abf565b50610ae6929150610aea565b5090565b610b0491905b80821115610ae65760008155600101610af0565b9056fea265627a7a72315820ed360c3cc9eff2d838e86faac3890f44be690ba1873d4332b913c6e12a37709364736f6c63430005100032",
  "source": "pragma solidity ^0.5.0;\n\ncontract DStorage {\n    // Name\n\n    // Number of files\n    uint256 public fileCount = 0;\n\n    // Mapping fileId=>Struct\n    mapping(uint256 => File) public files;\n\n    // Struct\n    struct File {\n        uint256 fileId;\n        string fileHash;\n        uint256 fileSize;\n        string fileType;\n        string fileName;\n        string fileDescription;\n        uint256 uploadTime;\n        address payable uploader;\n    }\n\n    // Event\n    event FileUploaded(\n        uint256 fileId,\n        string fileHash,\n        uint256 fileSize,\n        string fileType,\n        string fileName,\n        string fileDescription,\n        uint256 uploadTime,\n        address payable uploader\n    );\n\n    constructor() public {}\n\n    // Upload File function\n    function uploadFile(\n        string memory _fileHash,\n        uint256 _fileSize,\n        string memory _fileType,\n        string memory _fileName,\n        string memory _fileDescription\n    ) public {\n        //check\n\n        require(bytes(_fileHash).length > 0);\n        require(bytes(_fileType).length > 0);\n        require(bytes(_fileDescription).length > 0);\n        require(bytes(_fileName).length > 0);\n        require(msg.sender != address(0));\n        require(_fileSize > 0);\n\n        fileCount++;\n\n        files[fileCount] = File(\n            fileCount,\n            _fileHash,\n            _fileSize,\n            _fileType,\n            _fileName,\n            _fileDescription,\n            now,\n            msg.sender\n        );\n\n        emit FileUploaded(\n            fileCount,\n            _fileHash,\n            _fileSize,\n            _fileType,\n            _fileName,\n            _fileDescription,\n            now,\n            msg.sender\n        );\n    }\n}\n",
  "sourcePath": "D:\\Programming\\Blockchain\\ipfs_start\\src\\contracts\\DStorage.sol",
  "compiler": {
    "name": "solc",
    "version": "0.5.16+commit.9c3226ce.Emscripten.clang"
  },
  "schemaVersion": "3.4.10",
  "updatedAt": "2022-11-22T09:02:43.674Z",
  "networkType": "ethereum",
  "devdoc": {
    "methods": {}
  },
  "userdoc": {
    "methods": {}
  }
}